:04000000FEEF7FF0A0
:10FF98000001CFEF7FF0600E3901D96F000EDB6FE3
:10FFA800000EDD6F050EDF6F000EDE6F000ECC6EEB
:10FFB800000EBC6E000EC46EBC84030E026E080EEA
:10FFC800016E770EE82EFED7012EFCD7022EFAD747
:10FFD80000F0BC94030E026E080E016E770EE82E38
:10FFE800FED7012EFCD7022EFAD700F0E0EF7FF003
:08FFF800FEEF7FF0CCEF7FF07B
:020000040020DA
:10000000FFFFFFFFFFFFFFFFFFFFFFFFFFFFFFFF00
:020000040030CA
:0A0000008CFF3EFF9FFFFFFFFFFF94
:00000001FF
